{
    "_format": "hh-sol-artifact-1",
    "contractName": "AccessPermissions",
    "sourceName": "contracts/AccessPermissions.sol",
    "abi": [
        {
            "inputs": [
                {
                    "internalType": "contract ClientConfigManager",
                    "name": "configMgr_",
                    "type": "address"
                },
                {
                    "internalType": "contract WaevEvents",
                    "name": "waevEvents_",
                    "type": "address"
                }
            ],
            "stateMutability": "nonpayable",
            "type": "constructor"
        },
        {
            "anonymous": false,
            "inputs": [
                {
                    "indexed": true,
                    "internalType": "bytes32",
                    "name": "grantorDeploymentId",
                    "type": "bytes32"
                },
                {
                    "indexed": true,
                    "internalType": "bytes32",
                    "name": "granteeDeploymentId",
                    "type": "bytes32"
                },
                {
                    "indexed": true,
                    "internalType": "bytes32",
                    "name": "dataId",
                    "type": "bytes32"
                },
                {
                    "indexed": false,
                    "internalType": "uint192",
                    "name": "readRoles",
                    "type": "uint192"
                },
                {
                    "indexed": false,
                    "internalType": "uint64",
                    "name": "expires",
                    "type": "uint64"
                }
            ],
            "name": "AccessSet",
            "type": "event"
        },
        {
            "inputs": [],
            "name": "DOMAIN_SEPARATOR",
            "outputs": [
                {
                    "internalType": "bytes32",
                    "name": "",
                    "type": "bytes32"
                }
            ],
            "stateMutability": "view",
            "type": "function"
        },
        {
            "inputs": [
                {
                    "internalType": "address",
                    "name": "grantee",
                    "type": "address"
                },
                {
                    "internalType": "bytes32",
                    "name": "grantorDeploymentId",
                    "type": "bytes32"
                },
                {
                    "internalType": "bytes32",
                    "name": "uid",
                    "type": "bytes32"
                },
                {
                    "internalType": "bytes32",
                    "name": "dataId",
                    "type": "bytes32"
                },
                {
                    "internalType": "uint256",
                    "name": "merkleFlags",
                    "type": "uint256"
                },
                {
                    "internalType": "bytes32[]",
                    "name": "merkleProof",
                    "type": "bytes32[]"
                }
            ],
            "name": "canRead",
            "outputs": [
                {
                    "internalType": "bool",
                    "name": "",
                    "type": "bool"
                }
            ],
            "stateMutability": "view",
            "type": "function"
        },
        {
            "inputs": [],
            "name": "configMgr",
            "outputs": [
                {
                    "internalType": "contract ClientConfigManager",
                    "name": "",
                    "type": "address"
                }
            ],
            "stateMutability": "view",
            "type": "function"
        },
        {
            "inputs": [
                {
                    "internalType": "bytes32",
                    "name": "id",
                    "type": "bytes32"
                },
                {
                    "internalType": "string",
                    "name": "part",
                    "type": "string"
                }
            ],
            "name": "dataIdFromIdPart",
            "outputs": [
                {
                    "internalType": "bytes32",
                    "name": "",
                    "type": "bytes32"
                }
            ],
            "stateMutability": "pure",
            "type": "function"
        },
        {
            "inputs": [
                {
                    "internalType": "bytes32",
                    "name": "grantorDeploymentId",
                    "type": "bytes32"
                },
                {
                    "internalType": "bytes32",
                    "name": "granteeDeploymentId",
                    "type": "bytes32"
                },
                {
                    "internalType": "bytes32",
                    "name": "dataId",
                    "type": "bytes32"
                }
            ],
            "name": "getPermissions",
            "outputs": [
                {
                    "internalType": "uint256",
                    "name": "flags",
                    "type": "uint256"
                },
                {
                    "internalType": "uint192",
                    "name": "readRoles",
                    "type": "uint192"
                },
                {
                    "internalType": "uint64",
                    "name": "expires",
                    "type": "uint64"
                }
            ],
            "stateMutability": "view",
            "type": "function"
        },
        {
            "inputs": [
                {
                    "internalType": "address",
                    "name": "signer",
                    "type": "address"
                },
                {
                    "internalType": "bytes32",
                    "name": "grantorDeploymentId",
                    "type": "bytes32"
                },
                {
                    "internalType": "bytes32",
                    "name": "granteeDeploymentId",
                    "type": "bytes32"
                },
                {
                    "internalType": "bytes32[]",
                    "name": "dataIds",
                    "type": "bytes32[]"
                },
                {
                    "internalType": "uint256",
                    "name": "requiredFlags",
                    "type": "uint256"
                },
                {
                    "internalType": "uint192",
                    "name": "readRoles",
                    "type": "uint192"
                },
                {
                    "internalType": "uint64",
                    "name": "expires",
                    "type": "uint64"
                }
            ],
            "name": "nonces",
            "outputs": [
                {
                    "internalType": "uint256",
                    "name": "",
                    "type": "uint256"
                }
            ],
            "stateMutability": "view",
            "type": "function"
        },
        {
            "inputs": [
                {
                    "internalType": "bytes32",
                    "name": "granteeDeploymentId",
                    "type": "bytes32"
                },
                {
                    "internalType": "bytes32[]",
                    "name": "dataIds",
                    "type": "bytes32[]"
                },
                {
                    "internalType": "uint256",
                    "name": "requiredFlags",
                    "type": "uint256"
                },
                {
                    "internalType": "uint192",
                    "name": "readRoles",
                    "type": "uint192"
                },
                {
                    "internalType": "uint64",
                    "name": "expires",
                    "type": "uint64"
                }
            ],
            "name": "setPermissions",
            "outputs": [],
            "stateMutability": "nonpayable",
            "type": "function"
        },
        {
            "inputs": [
                {
                    "internalType": "bytes32",
                    "name": "grantorDeploymentId",
                    "type": "bytes32"
                },
                {
                    "internalType": "bytes32",
                    "name": "granteeDeploymentId",
                    "type": "bytes32"
                },
                {
                    "internalType": "bytes32[]",
                    "name": "dataIds",
                    "type": "bytes32[]"
                },
                {
                    "internalType": "uint256",
                    "name": "requiredFlags",
                    "type": "uint256"
                },
                {
                    "internalType": "uint192",
                    "name": "readRoles",
                    "type": "uint192"
                },
                {
                    "internalType": "uint64",
                    "name": "expires",
                    "type": "uint64"
                }
            ],
            "name": "setPermissionsAdmin",
            "outputs": [],
            "stateMutability": "nonpayable",
            "type": "function"
        },
        {
            "inputs": [
                {
                    "internalType": "bytes32",
                    "name": "granteeDeploymentId",
                    "type": "bytes32"
                },
                {
                    "internalType": "bytes32[]",
                    "name": "dataIds",
                    "type": "bytes32[]"
                },
                {
                    "internalType": "uint256",
                    "name": "requiredFlags",
                    "type": "uint256"
                },
                {
                    "internalType": "uint192",
                    "name": "readRoles",
                    "type": "uint192"
                },
                {
                    "internalType": "uint64",
                    "name": "expires",
                    "type": "uint64"
                },
                {
                    "internalType": "uint256",
                    "name": "deadline",
                    "type": "uint256"
                },
                {
                    "internalType": "address",
                    "name": "signer",
                    "type": "address"
                },
                {
                    "internalType": "uint8",
                    "name": "v",
                    "type": "uint8"
                },
                {
                    "internalType": "bytes32",
                    "name": "r",
                    "type": "bytes32"
                },
                {
                    "internalType": "bytes32",
                    "name": "s",
                    "type": "bytes32"
                }
            ],
            "name": "setPermissionsMeta",
            "outputs": [],
            "stateMutability": "nonpayable",
            "type": "function"
        },
        {
            "inputs": [],
            "name": "waevEvents",
            "outputs": [
                {
                    "internalType": "contract WaevEvents",
                    "name": "",
                    "type": "address"
                }
            ],
            "stateMutability": "view",
            "type": "function"
        }
    ],
    "bytecode": "0x6101403461018c576114c4906001600160401b0390601f38849003908101601f191682019083821183831017610176578083916040968794855283398101031261018c5780516001600160a01b0380821692909183900361018c576020015190811680910361018c5783519161007483610191565b60048352600160208401632bb0b2bb60e11b81526020875161009581610191565b8381520194603160f81b865251902093208360e052610100958187524660a05280519060208201927f8b73c3c69bb8fe3d512ecc4cf759cc79239f7b179b0ffacaa9a75d522b39400f968785528284015260608301524660808301523060a083015260a0825260c082019682881090881117610176578690525190206080523060c05261012092835260018060a01b031990816002541617600255600354161760035561131792836101ad843960805183610da0015260a05183610e6b015260c05183610d6a015260e05183610def01525182610e1501525181610dcc0152f35b634e487b7160e01b600052604160045260246000fd5b600080fd5b604081019081106001600160401b038211176101765760405256fe608080604052600436101561001357600080fd5b60003560e01c9081630a48c8f6146109e5575080632573adce146109bc5780633644e515146109995780636ad13206146108475780638b71837f146107fc5780638cfdb93314610453578063c566f4c4146103f5578063c65e0f3f14610220578063dbc86c8b1461013a5763fdc272ec1461008d57600080fd5b346101355760e0366003190112610135576100a6610abc565b6001600160401b0390606435828111610135576100c7903690600401610a2a565b9160a435916001600160c01b03831683036101355760c43591821682036101355761010c61011a9260405194859360208501976084359160443590602435908b61128e565b03601f198101835282610a09565b51902060005260016020526020604060002054604051908152f35b600080fd5b34610135576040366003190112610135576024356001600160401b03808211610135573660238301121561013557816004013590811161020a576040519060209261018e84601f19601f8501160184610a09565b8183523660248383010111610135578160009260248693018386013783010152604051828101916004358352818151918560005b8481106101f357505050806101e892604092016000838201520385810184520182610a09565b519020604051908152f35b8083018201518682016040015285935081016101c2565b634e487b7160e01b600052604160045260246000fd5b346101355760c0366003190112610135576001600160401b0360443581811161013557610251903690600401610a2a565b6001600160c01b0391906084359083821682036101355760a435928316830361013557600254604080516306dd100960e41b81523360048201526001600160a01b03909216959082602481895afa918215610386576000906000936103c1575b506040516344ac23f760e11b815260209182826004818c5afa91821561038657600092610392575b50149687610303575b505050506102f261030194610b03565b60643590602435600435610ebb565b005b8192939750906004916040519283809263a770210d60e01b82525afa91821561038657600092610345575b5050906102f29161030196161615159486806102e2565b9080939250813d831161037f575b61035d8183610a09565b8101031261013557610301956103756102f293610ad2565b919281975061032e565b503d610353565b6040513d6000823e3d90fd5b9091508281813d83116103ba575b6103aa8183610a09565b81010312610135575190896102d9565b503d6103a0565b90506103e691925060403d6040116103ee575b6103de8183610a09565b810190610ae6565b9190876102b1565b503d6103d4565b346101355760c03660031901126101355761040e610abc565b60a4356001600160401b03811161013557602091610433610449923690600401610a2a565b9060843590606435906044359060243590611062565b6040519015158152f35b3461013557610140366003190112610135576024356001600160401b03811161013557610484903690600401610a2a565b61048c610a90565b610494610aa6565b9060c4356001600160a01b03811690036101355760ff60e4351660e435036101355760a43542116107b857600254604080516306dd100960e41b81526001600160a01b0360c435811660048301529092169082602481845afa801561038657600092600091610793575b508215159182610719575b505061051490610b03565b6040516105348161010c86866044358a6004358960c4356020890161128e565b60208151910120600052600160205260406000208054906001820190556040516020810190818188519160208a019260005b818110610700575050610582925003601f198101835282610a09565b51902090604051917fe5dfacc4cbd71e70cd9b013e64c13bc6a9af5c5d27e06c4025124328ad4267e8602084015260043560408401526060830152604435608083015260018060c01b03841660a08301526001600160401b03851660c083015260e082015261010060a435818301528152806101208101106001600160401b036101208301111761020a57610120810160405260208151910120610624610d67565b906040519161190160f01b602084015260228301526042820152604281528060808101106001600160401b0360808301111761020a5761068281608061068a93016040526101243590610104359060e4359060208151910120610cb2565b919091610b40565b6001600160a01b0390811660c435909116036106b157610301936044359160043590610ebb565b60405162461bcd60e51b815260206004820152602160248201527f7365745065726d697373696f6e733a20696e76616c6964207369676e617475726044820152606560f81b6064820152608490fd5b8451835260209485019486945090920191600101610566565b60405163a770210d60e01b81529250602090839060049082905afa801561038657600090610759575b166001600160c01b03161515905061051486610509565b506020823d821161078b575b8161077260209383610a09565b810103126101355761078661051492610ad2565b610742565b3d9150610765565b90506107af91925060403d6040116103ee576103de8183610a09565b919091866104fe565b606460405162461bcd60e51b815260206004820152602060248201527f7365745065726d697373696f6e733a206578706972656420646561646c696e656044820152fd5b346101355760603660031901126101355760606001600160401b03610828604435602435600435610fde565b9060409392935193845260018060c01b03166020840152166040820152f35b346101355760a0366003190112610135576024356001600160401b03811161013557610877903690600401610a2a565b61087f610a90565b610887610aa6565b600254604080516306dd100960e41b81523360048201526001600160a01b03909216949293929082602481885afa801561038657600092600091610974575b5082151595866108ec575b50506108df61030195610b03565b6044359160043590610ebb565b60405163a770210d60e01b8152919650602090829060049082905afa90811561038657600091610932575b509094166001600160c01b03161515936108df6103016108d1565b90506020813d821161096c575b8161094c60209383610a09565b8101031261013557610301956109646108df92610ad2565b915095610917565b3d915061093f565b905061099091925060403d6040116103ee576103de8183610a09565b919091866108c6565b346101355760003660031901126101355760206109b4610d67565b604051908152f35b34610135576000366003190112610135576003546040516001600160a01b039091168152602090f35b34610135576000366003190112610135576002546001600160a01b03168152602090f35b90601f801991011681019081106001600160401b0382111761020a57604052565b9080601f83011215610135578135906001600160401b03821161020a578160051b60405193602093610a5e85840187610a09565b85528380860192820101928311610135578301905b828210610a81575050505090565b81358152908301908301610a73565b606435906001600160c01b038216820361013557565b608435906001600160401b038216820361013557565b600435906001600160a01b038216820361013557565b51906001600160c01b038216820361013557565b919082604091031261013557610b00602083519301610ad2565b90565b15610b0a57565b60405162461bcd60e51b815260206004820152600e60248201526d1b9bdd17d85d5d1a1bdc9a5e995960921b6044820152606490fd5b6005811015610c9c5780610b515750565b60018103610b9e5760405162461bcd60e51b815260206004820152601860248201527f45434453413a20696e76616c6964207369676e617475726500000000000000006044820152606490fd5b60028103610beb5760405162461bcd60e51b815260206004820152601f60248201527f45434453413a20696e76616c6964207369676e6174757265206c656e677468006044820152606490fd5b60038103610c435760405162461bcd60e51b815260206004820152602260248201527f45434453413a20696e76616c6964207369676e6174757265202773272076616c604482015261756560f01b6064820152608490fd5b600414610c4c57565b60405162461bcd60e51b815260206004820152602260248201527f45434453413a20696e76616c6964207369676e6174757265202776272076616c604482015261756560f01b6064820152608490fd5b634e487b7160e01b600052602160045260246000fd5b9291907f7fffffffffffffffffffffffffffffff5d576e7357a4501ddfe92f46681b20a08311610d5b5760ff16601b81141580610d50575b610d44579160809493916020936040519384528484015260408301526060820152600093849182805260015afa15610d375781516001600160a01b03811615610d31579190565b50600190565b50604051903d90823e3d90fd5b50505050600090600490565b50601c811415610cea565b50505050600090600390565b307f00000000000000000000000000000000000000000000000000000000000000006001600160a01b03161480610e68575b15610dc2577f000000000000000000000000000000000000000000000000000000000000000090565b60405160208101907f000000000000000000000000000000000000000000000000000000000000000082527f000000000000000000000000000000000000000000000000000000000000000060408201527f000000000000000000000000000000000000000000000000000000000000000060608201524660808201523060a082015260a0815260c081018181106001600160401b0382111761020a5760405251902090565b507f00000000000000000000000000000000000000000000000000000000000000004614610d99565b8051821015610ea55760209160051b010190565b634e487b7160e01b600052603260045260246000fd5b9291909360005b8251811015610fd5576040805190606082016001600160401b038382108183111761020a578289928b9452888552602094858101908d600160c01b60019003808b16958685528584019216938c8b868552610f1c91610e91565b5186518b81018a8152602081018c90526040810192909252806060830103601f1981018252610f4b9082610a09565b51902060005260008a5285600020935184555116906001600160401b0360c01b905160c01b16179060010155610f81878a610e91565b519582519384528301527f5b765806665052eb77f28053a55bc37e3d73431a894b4eafafec299abc98ef8c91a46000198114610fbf57600101610ec2565b634e487b7160e01b600052601160045260246000fd5b50505050505050565b6040805160208101928352908101929092526060820192909252611005816080810161010c565b5190206000526000602052604060002060018154910154909160018060c01b0382169160c01c90565b90815180825260208080930193019160005b82811061104e575050505090565b835185529381019392810192600101611040565b929194909460018060a01b0360035416906040519263068f948760e11b84528760048501528160248501526020938481604481875afa80156103865760009061117c575b6110b3915087878b6111ab565b61116f57805115611162576110f992849260405180958194829363bdf191db60e01b84528d600485015260248401528b604484015260806064840152608483019061102e565b03915afa91821561038657600092611125575b50501561111c57610b00936111ab565b50505050600090565b81813d831161115b575b6111398183610a09565b8101031261115757519081151582036111545750388061110c565b80fd5b5080fd5b503d61112f565b5050505050505050600090565b5050505050505050600190565b8582813d83116111a4575b6111918183610a09565b8101031261115457506110b390516110a6565b503d611187565b600254604080516306dd100960e41b81526001600160a01b0395861660048201529394909184916024918391165afa928315610386576000928394611268575b50821561125e576001600160401b039261120492610fde565b90949192168015159081611253575b5061111c5781160361124c576001600160c01b03828116801515939092908461123e575b5050505090565b161614905038808080611237565b5050600090565b905042101538611213565b5050505050600090565b90935061128491925060403d81116103ee576103de8183610a09565b91909192386111eb565b95919360c0959897936001600160401b03956112c99360018060a01b031689526020890152604088015260e0606088015260e087019061102e565b966080860152600180851b031660a08501521691015256fea26469706673582212205d554fd432ed9e639661e407681acda4a1f00a0f42794f67f681faf656b5ca8264736f6c63430008110033",
    "linkReferences": {},
    "deployedLinkReferences": {}
}