{
  "_format": "hh-sol-artifact-1",
  "contractName": "ClientConfigManager",
  "sourceName": "contracts/ClientConfigManager.sol",
  "abi": [
    {
      "inputs": [],
      "stateMutability": "nonpayable",
      "type": "constructor"
    },
    {
      "anonymous": false,
      "inputs": [
        {
          "indexed": true,
          "internalType": "bytes32",
          "name": "deploymentId",
          "type": "bytes32"
        },
        {
          "indexed": true,
          "internalType": "address",
          "name": "key",
          "type": "address"
        },
        {
          "indexed": false,
          "internalType": "uint192",
          "name": "roles",
          "type": "uint192"
        },
        {
          "indexed": false,
          "internalType": "uint64",
          "name": "expires",
          "type": "uint64"
        }
      ],
      "name": "KeyInfo",
      "type": "event"
    },
    {
      "anonymous": false,
      "inputs": [
        {
          "indexed": true,
          "internalType": "address",
          "name": "previousOwner",
          "type": "address"
        },
        {
          "indexed": true,
          "internalType": "address",
          "name": "newOwner",
          "type": "address"
        }
      ],
      "name": "OwnershipTransferred",
      "type": "event"
    },
    {
      "inputs": [],
      "name": "DOMAIN_SEPARATOR",
      "outputs": [
        {
          "internalType": "bytes32",
          "name": "",
          "type": "bytes32"
        }
      ],
      "stateMutability": "view",
      "type": "function"
    },
    {
      "inputs": [],
      "name": "ROLE_ADMIN",
      "outputs": [
        {
          "internalType": "uint192",
          "name": "",
          "type": "uint192"
        }
      ],
      "stateMutability": "view",
      "type": "function"
    },
    {
      "inputs": [],
      "name": "ROLE_GRANT",
      "outputs": [
        {
          "internalType": "uint192",
          "name": "",
          "type": "uint192"
        }
      ],
      "stateMutability": "view",
      "type": "function"
    },
    {
      "inputs": [],
      "name": "ROLE_READ",
      "outputs": [
        {
          "internalType": "uint192",
          "name": "",
          "type": "uint192"
        }
      ],
      "stateMutability": "view",
      "type": "function"
    },
    {
      "inputs": [],
      "name": "ROLE_SUPERUSER",
      "outputs": [
        {
          "internalType": "uint192",
          "name": "",
          "type": "uint192"
        }
      ],
      "stateMutability": "view",
      "type": "function"
    },
    {
      "inputs": [],
      "name": "ROLE_WRITE",
      "outputs": [
        {
          "internalType": "uint192",
          "name": "",
          "type": "uint192"
        }
      ],
      "stateMutability": "view",
      "type": "function"
    },
    {
      "inputs": [],
      "name": "WAEV_DEPLOYMENTID",
      "outputs": [
        {
          "internalType": "bytes32",
          "name": "",
          "type": "bytes32"
        }
      ],
      "stateMutability": "view",
      "type": "function"
    },
    {
      "inputs": [
        {
          "internalType": "address",
          "name": "user",
          "type": "address"
        }
      ],
      "name": "currentDeploymentId",
      "outputs": [
        {
          "internalType": "bytes32",
          "name": "",
          "type": "bytes32"
        },
        {
          "internalType": "uint192",
          "name": "",
          "type": "uint192"
        }
      ],
      "stateMutability": "view",
      "type": "function"
    },
    {
      "inputs": [
        {
          "internalType": "address",
          "name": "key",
          "type": "address"
        }
      ],
      "name": "getDeploymentId",
      "outputs": [
        {
          "internalType": "bytes32",
          "name": "deploymentId",
          "type": "bytes32"
        },
        {
          "internalType": "uint192",
          "name": "roles",
          "type": "uint192"
        },
        {
          "internalType": "uint64",
          "name": "expires",
          "type": "uint64"
        }
      ],
      "stateMutability": "view",
      "type": "function"
    },
    {
      "inputs": [
        {
          "internalType": "address",
          "name": "",
          "type": "address"
        }
      ],
      "name": "keyToId",
      "outputs": [
        {
          "internalType": "bytes32",
          "name": "deploymentId",
          "type": "bytes32"
        },
        {
          "internalType": "uint192",
          "name": "roles",
          "type": "uint192"
        },
        {
          "internalType": "uint64",
          "name": "expires",
          "type": "uint64"
        }
      ],
      "stateMutability": "view",
      "type": "function"
    },
    {
      "inputs": [
        {
          "internalType": "address",
          "name": "signer",
          "type": "address"
        },
        {
          "internalType": "bytes32",
          "name": "deploymentId",
          "type": "bytes32"
        },
        {
          "internalType": "address",
          "name": "key",
          "type": "address"
        },
        {
          "internalType": "uint192",
          "name": "roles",
          "type": "uint192"
        },
        {
          "internalType": "uint64",
          "name": "expires",
          "type": "uint64"
        }
      ],
      "name": "nonces",
      "outputs": [
        {
          "internalType": "uint256",
          "name": "",
          "type": "uint256"
        }
      ],
      "stateMutability": "view",
      "type": "function"
    },
    {
      "inputs": [],
      "name": "owner",
      "outputs": [
        {
          "internalType": "address",
          "name": "",
          "type": "address"
        }
      ],
      "stateMutability": "view",
      "type": "function"
    },
    {
      "inputs": [],
      "name": "renounceOwnership",
      "outputs": [],
      "stateMutability": "nonpayable",
      "type": "function"
    },
    {
      "inputs": [
        {
          "internalType": "bytes32",
          "name": "deploymentId",
          "type": "bytes32"
        },
        {
          "internalType": "address",
          "name": "key",
          "type": "address"
        },
        {
          "internalType": "uint192",
          "name": "roles",
          "type": "uint192"
        },
        {
          "internalType": "uint64",
          "name": "expires",
          "type": "uint64"
        }
      ],
      "name": "setKey",
      "outputs": [],
      "stateMutability": "nonpayable",
      "type": "function"
    },
    {
      "inputs": [
        {
          "internalType": "bytes32",
          "name": "deploymentId",
          "type": "bytes32"
        },
        {
          "internalType": "address",
          "name": "key",
          "type": "address"
        },
        {
          "internalType": "uint192",
          "name": "roles",
          "type": "uint192"
        },
        {
          "internalType": "uint64",
          "name": "expires",
          "type": "uint64"
        },
        {
          "internalType": "uint256",
          "name": "deadline",
          "type": "uint256"
        },
        {
          "internalType": "address",
          "name": "signer",
          "type": "address"
        },
        {
          "internalType": "uint8",
          "name": "v",
          "type": "uint8"
        },
        {
          "internalType": "bytes32",
          "name": "r",
          "type": "bytes32"
        },
        {
          "internalType": "bytes32",
          "name": "s",
          "type": "bytes32"
        }
      ],
      "name": "setKeyMeta",
      "outputs": [],
      "stateMutability": "nonpayable",
      "type": "function"
    },
    {
      "inputs": [
        {
          "internalType": "address",
          "name": "newOwner",
          "type": "address"
        }
      ],
      "name": "transferOwnership",
      "outputs": [],
      "stateMutability": "nonpayable",
      "type": "function"
    }
  ],
  "bytecode": "0x61014080604052346101635761001481610168565b6004815260208101632bb0b2bb60e11b8152602060405161003481610168565b6001808252603160f81b9290910191825260008054336001600160a01b031982168117835560405196929592916001600160a01b03167f8be0079c531659141344cd1fd0a4f28419497f9722a3daafe3b4186f6b6457e08780a351902091208160e052610100938185524660a05260208101917f8b73c3c69bb8fe3d512ecc4cf759cc79239f7b179b0ffacaa9a75d522b39400f93848452604083015260608201524660808201523060a082015260a0815260c081019381851060018060401b0386111761014f5750836040525190206080523060c052610120908152611076928361019a843960805183610ea5015260a05183610f70015260c05183610e6f015260e05183610ef401525182610f1a01525181610ed10152f35b634e487b7160e01b81526041600452602490fd5b600080fd5b604081019081106001600160401b0382111761018357604052565b634e487b7160e01b600052604160045260246000fdfe608060408181526004918236101561001657600080fd5b600092833560e01c9182632da67f8a146104fd575081633644e515146104d95781634eb9f3f6146104855781636dd100901461044c578163715018a6146103eb5781638186d88d146103b0578163895847ee146103935781638da5cb5b1461036b5781639da34ebf1461034f578163a770210d14610332578163c04a027814610316578163d391014b146102f7578163ebb4f484146102d8578163f2fde38b1461020d57508063f9c194791461013a5763fdd2941a146100d557600080fd5b34610136576020366003190112610136579081906001600160a01b036100f961077e565b1681526001602081815292909120805491015492519081526001600160c01b0383169181019190915260c09190911c6040820152606090f35b0390f35b5080fd5b50346101365760a03660031901126101365761015461077e565b6044356001600160a01b038116810361020957606435906001600160c01b0382168203610205576084356001600160401b03811681036102015784516001600160a01b03948516602082810191825260243560408401529590931660608201526001600160c01b0390931660808401526001600160401b031660a08301529193839290916101ef8160c081015b03601f198101835282610c0e565b51902081526002845220549051908152f35b8580fd5b8480fd5b8380fd5b9050346102d45760203660031901126102d45761022861077e565b83546001600160a01b038082169391926102433386146107c0565b169384156102825750506001600160a01b031916821783557f8be0079c531659141344cd1fd0a4f28419497f9722a3daafe3b4186f6b6457e08380a380f35b906020608492519162461bcd60e51b8352820152602660248201527f4f776e61626c653a206e6577206f776e657220697320746865207a65726f206160448201526564647265737360d01b6064820152fd5b8280fd5b5050346101365781600319360112610136576020905163800000008152f35b5050346101365781600319360112610136576020905163400000008152f35b5050346101365781600319360112610136576020905160028152f35b919050346102d457826003193601126102d4576020925051908152f35b5050346101365781600319360112610136576020905160018152f35b505034610136578160031936011261013657905490516001600160a01b039091168152602090f35b505034610136578160031936011261013657516000198152602090f35b839034610136576080366003190112610136576103e8906103cf610763565b6103d7610794565b6103df6107aa565b9133933561080b565b80f35b8334610449578060031936011261044957805481906001600160a01b038116906104163383146107c0565b6001600160a01b03191682557f8be0079c531659141344cd1fd0a4f28419497f9722a3daafe3b4186f6b6457e08280a380f35b80fd5b828434610449576020366003190112610449575061047061046b61077e565b610fe5565b82519182526001600160c01b03166020820152f35b50503461013657602036600319011261013657610132906104ac6104a761077e565b610f96565b92519182526001600160c01b031660208201526001600160401b0390911660408201529081906060820190565b5050346101365781600319360112610136576020906104f6610e6c565b9051908152f35b90849250346102d4576101203660031901126102d457803561051d610763565b610525610794565b9161052e6107aa565b60a435959094906001600160a01b038088169160843590838a0361075f5760c4359060ff8216820361075b5782421161071a57508b516001600160a01b03808c16602083019081526040830189905290891660608301526001600160c01b038a1660808301526001600160401b038b1660a0830152906105b18160c081016101e1565b5190208b5260026020528b808c20928354936001850190558151908860208301937f5139b4b330b9f1d533e4051954e7c7009e64930bb1426db7dbe653fbc01c59d98552830152858a16606083015260018060c01b038b1660808301526001600160401b0394858d1660a084015260c083015260e082015260e08152610100810181811085821117610707578e525190209061064b610e6c565b928d5192602084019461190160f01b865260228501526042840152604283526080830190838210908211176106f4579161069f9391610697938f52610104359260e43592519020610db7565b919091610c45565b16036106b157506103e895965061080b565b606490602089519162461bcd60e51b8352820152601960248201527f7365744b65793a20696e76616c6964207369676e6174757265000000000000006044820152fd5b634e487b7160e01b8d526041875260248dfd5b634e487b7160e01b8e526041885260248efd5b62461bcd60e51b8152602086820152601860248201527f7365744b65793a206578706972656420646561646c696e6500000000000000006044820152606490fd5b8b80fd5b8a80fd5b602435906001600160a01b038216820361077957565b600080fd5b600435906001600160a01b038216820361077957565b604435906001600160c01b038216820361077957565b606435906001600160401b038216820361077957565b156107c757565b606460405162461bcd60e51b815260206004820152602060248201527f4f776e61626c653a2063616c6c6572206973206e6f7420746865206f776e65726044820152fd5b92939160018060a01b03809216948560005260209160018352604094856000209480600054169116809103610888575b508584556001600160c01b03166001600160c01b031960c083901b16811760019094019390935583519283526001600160401b0316908201526000805160206110218339815191529190a3565b600052846000208054908115610bd25760010154908160c01c8015908115610bc8575b5015610b905787158015610b86575b15610a11578554036109cd5763c0000000908160018701541615806109c3575b1561095157161561090d57600080516020611021833981519152949392916001600160401b03915b91509192939461083b565b845162461bcd60e51b815260048101849052601960248201527f73656e6465724b65795f6e6f745f617574686f72697a656432000000000000006044820152606490fd5b63800000009150161561097f57600080516020611021833981519152949392916001600160401b0391610902565b845162461bcd60e51b815260048101849052601960248201527f73656e6465724b65795f6e6f745f617574686f72697a656433000000000000006044820152606490fd5b50818316156108da565b855162461bcd60e51b815260048101859052601960248201527f73656e6465724b65795f6e6f745f617574686f72697a656431000000000000006044820152606490fd5b8554610b4b578703610b075763c000000090828216610a95571615610a5157600080516020611021833981519152949392916001600160401b0391610902565b845162461bcd60e51b815260048101849052601960248201527f73656e6465724b65795f6e6f745f617574686f72697a656435000000000000006044820152606490fd5b638000000091501615610ac357600080516020611021833981519152949392916001600160401b0391610902565b845162461bcd60e51b815260048101849052601960248201527f73656e6465724b65795f6e6f745f617574686f72697a656436000000000000006044820152606490fd5b855162461bcd60e51b815260048101859052601960248201527f73656e6465724b65795f6e6f745f617574686f72697a656434000000000000006044820152606490fd5b865162461bcd60e51b81526004810186905260146024820152731ad95e57d85b1c9958591e57d85d1d1858da195960621b6044820152606490fd5b50878654146108ba565b865162461bcd60e51b81526004810186905260116024820152701cd95b99195c92d95e57d95e1c1a5c9959607a1b6044820152606490fd5b90504210386108ab565b865162461bcd60e51b81526004810186905260156024820152741cd95b99195c92d95e57db9bdd105d1d1858da1959605a1b6044820152606490fd5b90601f801991011681019081106001600160401b03821117610c2f57604052565b634e487b7160e01b600052604160045260246000fd5b6005811015610da15780610c565750565b60018103610ca35760405162461bcd60e51b815260206004820152601860248201527f45434453413a20696e76616c6964207369676e617475726500000000000000006044820152606490fd5b60028103610cf05760405162461bcd60e51b815260206004820152601f60248201527f45434453413a20696e76616c6964207369676e6174757265206c656e677468006044820152606490fd5b60038103610d485760405162461bcd60e51b815260206004820152602260248201527f45434453413a20696e76616c6964207369676e6174757265202773272076616c604482015261756560f01b6064820152608490fd5b600414610d5157565b60405162461bcd60e51b815260206004820152602260248201527f45434453413a20696e76616c6964207369676e6174757265202776272076616c604482015261756560f01b6064820152608490fd5b634e487b7160e01b600052602160045260246000fd5b9291907f7fffffffffffffffffffffffffffffff5d576e7357a4501ddfe92f46681b20a08311610e605760ff16601b81141580610e55575b610e49579160809493916020936040519384528484015260408301526060820152600093849182805260015afa15610e3c5781516001600160a01b03811615610e36579190565b50600190565b50604051903d90823e3d90fd5b50505050600090600490565b50601c811415610def565b50505050600090600390565b307f00000000000000000000000000000000000000000000000000000000000000006001600160a01b03161480610f6d575b15610ec7577f000000000000000000000000000000000000000000000000000000000000000090565b60405160208101907f000000000000000000000000000000000000000000000000000000000000000082527f000000000000000000000000000000000000000000000000000000000000000060408201527f000000000000000000000000000000000000000000000000000000000000000060608201524660808201523060a082015260a0815260c081018181106001600160401b03821117610c2f5760405251902090565b507f00000000000000000000000000000000000000000000000000000000000000004614610e9e565b6000546001600160a01b0391821691168114610fd2576000526001602052604060002060018154910154909160018060c01b0382169160c01c90565b50600019906001600160c01b0390600090565b90610ff76001600160401b0392610f96565b9093168015908115611016575b506110125750600091508190565b9190565b905042103861100456fe0473daffca35aaaef316570cf7dd7a4354e363b21378d423ed141f221ba0e414a2646970667358221220fc761a7927e27681e4f14cc4a5f3c07a9f2e4a9a35673c00dcd79c90ce493e3f64736f6c63430008110033",
  "linkReferences": {},
  "deployedLinkReferences": {}
}