{
  "_format": "hh-sol-artifact-1",
  "contractName": "Market",
  "sourceName": "contracts/Market.sol",
  "abi": [
    {
      "inputs": [
        {
          "internalType": "address",
          "name": "clientConfigAddress",
          "type": "address"
        },
        {
          "internalType": "address",
          "name": "accessPermissionsAddress",
          "type": "address"
        }
      ],
      "stateMutability": "nonpayable",
      "type": "constructor"
    },
    {
      "anonymous": false,
      "inputs": [
        {
          "indexed": true,
          "internalType": "bytes32",
          "name": "offerId",
          "type": "bytes32"
        },
        {
          "indexed": true,
          "internalType": "bytes32",
          "name": "deploymentId",
          "type": "bytes32"
        },
        {
          "indexed": false,
          "internalType": "bytes32[]",
          "name": "dataIds",
          "type": "bytes32[]"
        }
      ],
      "name": "OfferPosted",
      "type": "event"
    },
    {
      "anonymous": false,
      "inputs": [
        {
          "indexed": true,
          "internalType": "bytes32",
          "name": "offerId",
          "type": "bytes32"
        },
        {
          "indexed": true,
          "internalType": "bytes32",
          "name": "recipientDeploymentId",
          "type": "bytes32"
        },
        {
          "indexed": false,
          "internalType": "uint64",
          "name": "expires",
          "type": "uint64"
        }
      ],
      "name": "OfferPurchased",
      "type": "event"
    },
    {
      "anonymous": false,
      "inputs": [
        {
          "indexed": true,
          "internalType": "bytes32",
          "name": "offerId",
          "type": "bytes32"
        }
      ],
      "name": "OfferRemoved",
      "type": "event"
    },
    {
      "inputs": [],
      "name": "DOMAIN_SEPARATOR",
      "outputs": [
        {
          "internalType": "bytes32",
          "name": "",
          "type": "bytes32"
        }
      ],
      "stateMutability": "view",
      "type": "function"
    },
    {
      "inputs": [],
      "name": "accessPermissions",
      "outputs": [
        {
          "internalType": "contract IAccessPermissions",
          "name": "",
          "type": "address"
        }
      ],
      "stateMutability": "view",
      "type": "function"
    },
    {
      "inputs": [
        {
          "components": [
            {
              "internalType": "bytes32",
              "name": "deploymentId",
              "type": "bytes32"
            },
            {
              "internalType": "bytes32[]",
              "name": "dataIds",
              "type": "bytes32[]"
            },
            {
              "internalType": "uint256",
              "name": "requiredFlags",
              "type": "uint256"
            },
            {
              "internalType": "uint192",
              "name": "readRoles",
              "type": "uint192"
            },
            {
              "internalType": "uint64",
              "name": "term",
              "type": "uint64"
            },
            {
              "internalType": "uint256",
              "name": "price",
              "type": "uint256"
            },
            {
              "internalType": "address",
              "name": "token",
              "type": "address"
            },
            {
              "internalType": "address payable",
              "name": "beneficiary",
              "type": "address"
            }
          ],
          "internalType": "struct Market.Offer",
          "name": "o",
          "type": "tuple"
        }
      ],
      "name": "addOffer",
      "outputs": [
        {
          "internalType": "bytes32",
          "name": "",
          "type": "bytes32"
        }
      ],
      "stateMutability": "nonpayable",
      "type": "function"
    },
    {
      "inputs": [],
      "name": "clientConfig",
      "outputs": [
        {
          "internalType": "contract IClientConfigManager",
          "name": "",
          "type": "address"
        }
      ],
      "stateMutability": "view",
      "type": "function"
    },
    {
      "inputs": [],
      "name": "deploymentsLLHead",
      "outputs": [
        {
          "internalType": "bytes32",
          "name": "",
          "type": "bytes32"
        }
      ],
      "stateMutability": "view",
      "type": "function"
    },
    {
      "inputs": [],
      "name": "deploymentsLLTail",
      "outputs": [
        {
          "internalType": "bytes32",
          "name": "",
          "type": "bytes32"
        }
      ],
      "stateMutability": "view",
      "type": "function"
    },
    {
      "inputs": [
        {
          "internalType": "bytes32",
          "name": "offerId_",
          "type": "bytes32"
        },
        {
          "internalType": "uint64",
          "name": "duration",
          "type": "uint64"
        }
      ],
      "name": "getCost",
      "outputs": [
        {
          "internalType": "uint256",
          "name": "cost",
          "type": "uint256"
        },
        {
          "internalType": "address",
          "name": "paymentToken",
          "type": "address"
        },
        {
          "internalType": "uint64",
          "name": "expires",
          "type": "uint64"
        }
      ],
      "stateMutability": "view",
      "type": "function"
    },
    {
      "inputs": [
        {
          "internalType": "bytes32",
          "name": "deploymentId",
          "type": "bytes32"
        }
      ],
      "name": "getDeploymentInfo",
      "outputs": [
        {
          "components": [
            {
              "internalType": "bytes32",
              "name": "offersHead",
              "type": "bytes32"
            },
            {
              "internalType": "bytes32",
              "name": "offersTail",
              "type": "bytes32"
            },
            {
              "internalType": "bytes32",
              "name": "left",
              "type": "bytes32"
            },
            {
              "internalType": "bytes32",
              "name": "right",
              "type": "bytes32"
            }
          ],
          "internalType": "struct Market.DeploymentInfo",
          "name": "",
          "type": "tuple"
        }
      ],
      "stateMutability": "view",
      "type": "function"
    },
    {
      "inputs": [
        {
          "internalType": "bytes32",
          "name": "offerId_",
          "type": "bytes32"
        }
      ],
      "name": "getOffer",
      "outputs": [
        {
          "components": [
            {
              "internalType": "bytes32",
              "name": "deploymentId",
              "type": "bytes32"
            },
            {
              "internalType": "bytes32[]",
              "name": "dataIds",
              "type": "bytes32[]"
            },
            {
              "internalType": "uint256",
              "name": "requiredFlags",
              "type": "uint256"
            },
            {
              "internalType": "uint192",
              "name": "readRoles",
              "type": "uint192"
            },
            {
              "internalType": "uint64",
              "name": "term",
              "type": "uint64"
            },
            {
              "internalType": "uint256",
              "name": "price",
              "type": "uint256"
            },
            {
              "internalType": "address",
              "name": "token",
              "type": "address"
            },
            {
              "internalType": "address payable",
              "name": "beneficiary",
              "type": "address"
            }
          ],
          "internalType": "struct Market.Offer",
          "name": "",
          "type": "tuple"
        }
      ],
      "stateMutability": "view",
      "type": "function"
    },
    {
      "inputs": [
        {
          "internalType": "bytes32",
          "name": "offerId_",
          "type": "bytes32"
        }
      ],
      "name": "getOfferLeftRight",
      "outputs": [
        {
          "internalType": "bytes32",
          "name": "",
          "type": "bytes32"
        },
        {
          "internalType": "bytes32",
          "name": "",
          "type": "bytes32"
        }
      ],
      "stateMutability": "view",
      "type": "function"
    },
    {
      "inputs": [
        {
          "internalType": "address",
          "name": "signer",
          "type": "address"
        }
      ],
      "name": "nonces",
      "outputs": [
        {
          "internalType": "uint256",
          "name": "",
          "type": "uint256"
        }
      ],
      "stateMutability": "view",
      "type": "function"
    },
    {
      "inputs": [
        {
          "components": [
            {
              "internalType": "bytes32",
              "name": "deploymentId",
              "type": "bytes32"
            },
            {
              "internalType": "bytes32[]",
              "name": "dataIds",
              "type": "bytes32[]"
            },
            {
              "internalType": "uint256",
              "name": "requiredFlags",
              "type": "uint256"
            },
            {
              "internalType": "uint192",
              "name": "readRoles",
              "type": "uint192"
            },
            {
              "internalType": "uint64",
              "name": "term",
              "type": "uint64"
            },
            {
              "internalType": "uint256",
              "name": "price",
              "type": "uint256"
            },
            {
              "internalType": "address",
              "name": "token",
              "type": "address"
            },
            {
              "internalType": "address payable",
              "name": "beneficiary",
              "type": "address"
            }
          ],
          "internalType": "struct Market.Offer",
          "name": "o",
          "type": "tuple"
        }
      ],
      "name": "offerId",
      "outputs": [
        {
          "internalType": "bytes32",
          "name": "",
          "type": "bytes32"
        }
      ],
      "stateMutability": "pure",
      "type": "function"
    },
    {
      "inputs": [
        {
          "internalType": "bytes32[]",
          "name": "ids",
          "type": "bytes32[]"
        },
        {
          "internalType": "bytes32",
          "name": "recipientDeploymentId",
          "type": "bytes32"
        },
        {
          "internalType": "uint64",
          "name": "duration",
          "type": "uint64"
        }
      ],
      "name": "purchase",
      "outputs": [],
      "stateMutability": "payable",
      "type": "function"
    },
    {
      "inputs": [
        {
          "internalType": "address",
          "name": "",
          "type": "address"
        },
        {
          "internalType": "bytes32",
          "name": "recipientDeploymentId",
          "type": "bytes32"
        },
        {
          "internalType": "bytes32",
          "name": "offerId_",
          "type": "bytes32"
        }
      ],
      "name": "purchaseAllowed",
      "outputs": [
        {
          "internalType": "bool",
          "name": "",
          "type": "bool"
        }
      ],
      "stateMutability": "view",
      "type": "function"
    },
    {
      "inputs": [
        {
          "internalType": "bytes32",
          "name": "id",
          "type": "bytes32"
        }
      ],
      "name": "removeOffer",
      "outputs": [],
      "stateMutability": "nonpayable",
      "type": "function"
    }
  ],
  "bytecode": "0x610140346200019c576200175e906001600160401b0390601f38849003908101601f1916820190838211838310176200018657808391604096879485528339810103126200019c576200006060206200005883620001bd565b9201620001bd565b8351916200006e83620001a1565b60048352600160208401632bb0b2bb60e11b8152602087516200009181620001a1565b8381520194603160f81b865251902093208360e052610100958187524660a05280519060208201927f8b73c3c69bb8fe3d512ecc4cf759cc79239f7b179b0ffacaa9a75d522b39400f968785528284015260608301524660808301523060a083015260a0825260c08201968288109088111762000186578690525190206080523060c052610120928352600580546001600160a01b039384166001600160a01b0319918216179091556006805492909316911617905561158b9283620001d3843960805183611464015260a0518361152f015260c0518361142e015260e051836114b3015251826114d9015251816114900152f35b634e487b7160e01b600052604160045260246000fd5b600080fd5b604081019081106001600160401b038211176200018657604052565b51906001600160a01b03821682036200019c5756fe6080604052600436101561001257600080fd5b60003560e01c8063081fe9a614610bda5780632e6af05014610b465780633644e51514610b2b57806338ce8a3c14610b025780635ba91b5314610ae457806368a0497914610abb5780637ecebe0014610a8157806383e83dfc14610a2f57806391d27f71146106fd57806396f3673a146106dd578063d27d424a146106a3578063d597b8c8146105b7578063e856775114610118578063f2f87a52146100fa5763f7c92149146100c157600080fd5b346100f55760603660031901126100f5576100da610fec565b5060206100eb604435602435611338565b6040519015158152f35b600080fd5b346100f55760003660031901126100f5576020600154604051908152f35b346100f55761012636611002565b60065460405163275cf9fb60e11b81523360048201526001600160a01b0392918316606082602481845afa91821561053357600092600091600091610582575b508315159182610577575b82610494575b5061018992508161046f575b506113a7565b61019282611189565b91805160005260209360038552604060002060005415600014610446578251806000556001555b84600052600286526040600020918682541560001461033357508351835560019283810188860151908151916001600160401b03831161031d5791818b8099989694610208848e9a98966113e3565b01906000528860002060005b83811061030757505050506040860151600282015560018060c01b036060870151166001600160401b0360c01b608088015160c01b1617600382015560a08601516004820155600660058201918360c089015116926bffffffffffffffffffffffff60a01b9384825416179055019160e0870151169082541617905582815501559083915b0151604051908582018683528151809152866040840192019060005b888282106102f0575050505090807f0e7b284355142ae20eef2f337fe8e4ddfc52831edd4cb0f7384e596fa5451381920390a3604051908152f35b8351855288965093840193909201916001016102b5565b8251818301558d9a8d9950909201918701610214565b634e487b7160e01b600052604160045260246000fd5b939291825415610349575b505050908391610299565b90919280945051835560019182840188860151908151916001600160401b03831161031d5791818b8099989694610383848e9a98966113e3565b01906000528860002060005b83811061043057505050506040860151600285015560018060c01b036060870151166001600160401b0360c01b608088015160c01b1617600385015560a08601516004850155600584018160c088015116906bffffffffffffffffffffffff60a01b9182825416179055600685019160e08801511690825416179055019081546000526002855282600860406000200155600782549101555585808061033e565b8251818301558d9a8d995090920191860161038f565b80546101b9578251600154600052600360406000200155600154600282015582516001556101b9565b6001600160401b031680159150811561048a575b5085610183565b9050421085610483565b90915060405163a770210d60e01b8082526020918281600481895afa91821561053357839160009361053f575b5060046040518098819382525afa918215610533576000926104fa575b5061018994506001600160c01b03918216921616149086610177565b90915084813d831161052c575b6105118183610f65565b810103126100f55761052561018994611361565b90886104de565b503d610507565b6040513d6000823e3d90fd5b8281939294503d8311610570575b6105578183610f65565b810103126100f5576105698391611361565b918a6104c1565b503d61054d565b855185149250610171565b9150506105a791925060603d81116105b0575b61059f8183610f65565b810190611375565b91929186610166565b503d610595565b346100f55760203660031901126100f557600060e06040516105d881610f49565b828152606060208201528260408201528260608201528260808201528260a08201528260c08201520152600435600052600260205261069f60406000206040519061062282610f49565b805482526040516106418161063a81600186016111b2565b0382610f65565b602083015260028101546040830152600381015460018060c01b038116606084015260c01c6080830152600481015460a0830152600660018060a01b03918260058201541660c085015201541660e0820152604051918291826110e1565b0390f35b346100f55760203660031901126100f557600435600052600260205260406007816000200154600882600020015482519182526020820152f35b346100f55760206106f56106f036611002565b611189565b604051908152f35b346100f5576020806003193601126100f55760043590816000526002908181526040600020805480156109ff5760065460405163275cf9fb60e11b81523360048201526001600160a01b0390911690606081602481855afa8015610533576000916000906000926109dd575b508483151593846109d3575b505082610900575b5061078e9250816108db57506113a7565b6000825560019283830180549060008155816108b5575b5050600090818685015581600385015581600485015581600585015581600685015560036008600786019586548061089e575b500191825480610888575b50848452528160408120948886541461087f575b86860189815414610875575b505555815415610836575b847f465659346a7628dc2a738851a06f2120e5243ee07f9e2431d6b19ad22254fff5600080a2005b60009360039382869384541461086a575b81541461085e575b5082015501558180808061080e565b8184015490558661084f565b858501548455610847565b8154905589610803565b825486556107f7565b86549085528882526007604086200155896107e3565b82820154908652898552826040872001558a6107d8565b6000528482600020918201915b8281106108cf57506107a5565b600081550185906108c2565b6001600160401b03168015915081156108f6575b5087610183565b90504210876108ef565b90915060405163a770210d60e01b908181528781600481885afa91821561053357889160009361099b575b5060046040518097819382525afa90811561053357600091610963575b61078e94506001600160c01b0391821692161614908861077d565b90508684813d8311610994575b61097a8183610f65565b810103126100f55761098e61078e94611361565b90610948565b503d610970565b8281939294503d83116109cc575b6109b38183610f65565b810103126100f5576109c58891611361565b918b61092b565b503d6109a9565b149250848a610775565b9150506109f8915060603d81116105b05761059f8183610f65565b9089610769565b60405162461bcd60e51b81526004810184905260086024820152671b9bdd119bdd5b9960c21b6044820152606490fd5b346100f55760403660031901126100f5576024356001600160401b0380821682036100f557610a626060926004356111ef565b9060409392935193845260018060a01b03166020840152166040820152f35b346100f55760203660031901126100f5576001600160a01b03610aa2610fec565b1660005260046020526020604060002054604051908152f35b346100f55760003660031901126100f5576005546040516001600160a01b039091168152602090f35b346100f55760003660031901126100f5576020600054604051908152f35b346100f55760003660031901126100f5576006546040516001600160a01b039091168152602090f35b346100f55760003660031901126100f55760206106f561142b565b346100f55760203660031901126100f55760006060604051610b6781610f2e565b8281528260208201528260408201520152600435600052600360205260806040600020604051610b9681610f2e565b815491828252600181015460208301908152606060036002840154936040860194855201549301928352604051938452516020840152516040830152516060820152f35b60603660031901126100f5576004356001600160401b0381116100f557610c05903690600401610f86565b6001600160401b0360443516604435036100f5576000345b8251821015610ec95760208260051b840101518060005260026020526040600020610c4a82602435611338565b15610e9757610c5b604435836111ef565b6005840154929490929091506001600160a01b031680610e045750838510610dd057610ca360008080808860018060a01b0360068a0154165af1610c9d6112c0565b506112ff565b60055483546002850154600386015490926001600160c01b03909116906001600160a01b0316803b156100f5576000928360405180968195829463c65e0f3f60e01b84526004840152602435602484015260c06044840152610d0c8c600160c4860191016111b2565b91606484015260848301526001600160401b038a1660a483015203925af1801561053357610db9575b506001600160401b03604051921682527f5c8211809cfb4ccb8c75f4f3b27be9c1b621bb3b6a7385a78f217b31169e70fb602060243593a3600501546001600160a01b031615610daa575b50906000198114610d945760010190610c1d565b634e487b7160e01b600052601160045260246000fd5b8103908111610d945783610d80565b6001600160401b03811161031d5760405287610d35565b60405162461bcd60e51b815260206004820152600c60248201526b1d5b99195c94185e5b595b9d60a21b6044820152606490fd5b6020600091606460018060a01b0360068801541660405194859384926323b872dd60e01b845233600485015260248401528a60448401525af1801561053357600090610e5a575b610e5591506112ff565b610ca3565b506020813d602011610e8f575b81610e7460209383610f65565b810103126100f5575180151581036100f557610e5590610e4b565b3d9150610e67565b60405162461bcd60e51b815260206004820152600a6024820152691b9bdd105b1b1bddd95960b21b6044820152606490fd5b80610ed057005b600080808093335af1610ee16112c0565b5015610ee957005b60405162461bcd60e51b815260206004820152601760248201527f636f756c646e7452656d69744f7665727061796d656e740000000000000000006044820152606490fd5b608081019081106001600160401b0382111761031d57604052565b61010081019081106001600160401b0382111761031d57604052565b90601f801991011681019081106001600160401b0382111761031d57604052565b9080601f830112156100f5578135906001600160401b03821161031d578160051b60405193602093610fba85840187610f65565b855283808601928201019283116100f5578301905b828210610fdd575050505090565b81358152908301908301610fcf565b600435906001600160a01b03821682036100f557565b600319906020818301126100f557600435906001600160401b03908183116100f557610100809484830301126100f5576040519384018481108382111761031d57604052826004013584526024830135908282116100f557600461106892850101610f86565b60208401526044820135604084015260648201356001600160c01b03811681036100f5576060840152608482013590811681036100f557608083015260a481013560a08301526001600160a01b039060c48101359082821682036100f55760e49160c0850152013590811681036100f55760e082015290565b602091828252610120820190805184840152838101519361010092836040860152855180915281610140860196019160005b82811061117557505050506040810151606084015260018060c01b0360608201511660808401526001600160401b0360808201511660a084015260a081015160c084015260e060018060a01b03918260c0820151168286015201511691015290565b835188529681019692810192600101611113565b6040516111ac8161119e6020820194856110e1565b03601f198101835282610f65565b51902090565b90815480825260208092019260005281600020916000905b8282106111d8575050505090565b8354855293840193600193840193909101906111ca565b91600092835260026020526040832091600383015460c01c156000146112295750600482015492915b600501546001600160a01b03169190565b6001600160401b0380911693841561128c57600484015485810290808204871490151715611278579442019081421161126457501691611218565b634e487b7160e01b81526011600452602490fd5b634e487b7160e01b82526011600452602482fd5b60405162461bcd60e51b815260206004820152600c60248201526b3d32b937a23ab930ba34b7b760a11b6044820152606490fd5b3d156112fa573d906001600160401b03821161031d57604051916112ee601f8201601f191660200184610f65565b82523d6000602084013e565b606090565b1561130657565b60405162461bcd60e51b815260206004820152600a602482015269636f756c646e7450617960b01b6044820152606490fd5b9060005260026020526040600020541561135b571561135657600190565b600090565b50600090565b51906001600160c01b03821682036100f557565b908160609103126100f557805191604061139160208401611361565b9201516001600160401b03811681036100f55790565b156113ae57565b60405162461bcd60e51b815260206004820152600d60248201526c1b9bdd105d5d1a1bdc9a5e9959609a1b6044820152606490fd5b68010000000000000000821161031d5780549180825582811061140557505050565b60009182526020822092830192015b82811061142057505050565b818155600101611414565b307f00000000000000000000000000000000000000000000000000000000000000006001600160a01b0316148061152c575b15611486577f000000000000000000000000000000000000000000000000000000000000000090565b60405160208101907f000000000000000000000000000000000000000000000000000000000000000082527f000000000000000000000000000000000000000000000000000000000000000060408201527f000000000000000000000000000000000000000000000000000000000000000060608201524660808201523060a082015260a0815260c081018181106001600160401b0382111761031d5760405251902090565b507f0000000000000000000000000000000000000000000000000000000000000000461461145d56fea2646970667358221220121959e09eea40a6062f76a724b3ced768ff4c5803d13c26a95e435973de54dd64736f6c63430008110033",
  "linkReferences": {},
  "deployedLinkReferences": {}
}